{
  "contractName": "NameValue",
  "abi": [
    {
      "constant": true,
      "inputs": [
        {
          "name": "",
          "type": "uint256"
        }
      ],
      "name": "keys",
      "outputs": [
        {
          "name": "",
          "type": "uint256"
        }
      ],
      "payable": false,
      "stateMutability": "view",
      "type": "function"
    },
    {
      "constant": true,
      "inputs": [
        {
          "name": "",
          "type": "uint256"
        }
      ],
      "name": "data",
      "outputs": [
        {
          "name": "",
          "type": "string"
        }
      ],
      "payable": false,
      "stateMutability": "view",
      "type": "function"
    },
    {
      "anonymous": false,
      "inputs": [
        {
          "indexed": false,
          "name": "key",
          "type": "string"
        },
        {
          "indexed": false,
          "name": "value",
          "type": "string"
        }
      ],
      "name": "KeyUpdated",
      "type": "event"
    },
    {
      "anonymous": false,
      "inputs": [
        {
          "indexed": false,
          "name": "key",
          "type": "string"
        }
      ],
      "name": "KeyRemoved",
      "type": "event"
    },
    {
      "constant": false,
      "inputs": [
        {
          "name": "key",
          "type": "string"
        },
        {
          "name": "value",
          "type": "string"
        }
      ],
      "name": "update",
      "outputs": [],
      "payable": false,
      "stateMutability": "nonpayable",
      "type": "function"
    },
    {
      "constant": true,
      "inputs": [
        {
          "name": "key",
          "type": "string"
        }
      ],
      "name": "get",
      "outputs": [
        {
          "name": "",
          "type": "string"
        }
      ],
      "payable": false,
      "stateMutability": "view",
      "type": "function"
    },
    {
      "constant": false,
      "inputs": [
        {
          "name": "key",
          "type": "string"
        }
      ],
      "name": "remove",
      "outputs": [],
      "payable": false,
      "stateMutability": "nonpayable",
      "type": "function"
    }
  ],
  "bytecode": "0x608060405234801561001057600080fd5b506109d3806100206000396000f30060806040526004361061006d576000357c0100000000000000000000000000000000000000000000000000000000900463ffffffff1680630cb6aaf114610072578063693ec85e146100b357806380599e4b14610195578063f0ba8440146101fe578063f4c84d19146102a4575b600080fd5b34801561007e57600080fd5b5061009d60048036038101908080359060200190929190505050610353565b6040518082815260200191505060405180910390f35b3480156100bf57600080fd5b5061011a600480360381019080803590602001908201803590602001908080601f0160208091040260200160405190810160405280939291908181526020018383808284378201915050505050509192919290505050610376565b6040518080602001828103825283818151815260200191508051906020019080838360005b8381101561015a57808201518184015260208101905061013f565b50505050905090810190601f1680156101875780820380516001836020036101000a031916815260200191505b509250505060405180910390f35b3480156101a157600080fd5b506101fc600480360381019080803590602001908201803590602001908080601f0160208091040260200160405190810160405280939291908181526020018383808284378201915050505050509192919290505050610439565b005b34801561020a57600080fd5b506102296004803603810190808035906020019092919050505061056f565b6040518080602001828103825283818151815260200191508051906020019080838360005b8381101561026957808201518184015260208101905061024e565b50505050905090810190601f1680156102965780820380516001836020036101000a031916815260200191505b509250505060405180910390f35b3480156102b057600080fd5b50610351600480360381019080803590602001908201803590602001908080601f0160208091040260200160405190810160405280939291908181526020018383808284378201915050505050509192919290803590602001908201803590602001908080601f016020809104026020016040519081016040528093929190818152602001838380828437820191505050505050919291929050505061061f565b005b60008181548110151561036257fe5b906000526020600020016000915090505481565b60606000610383836107e8565b9050600160008281526020019081526020016000208054600181600116156101000203166002900480601f01602080910402602001604051908101604052809291908181526020018280546001816001161561010002031660029004801561042c5780601f106104015761010080835404028352916020019161042c565b820191906000526020600020905b81548152906001019060200180831161040f57829003601f168201915b5050505050915050919050565b6000806000610447846107e8565b925060016000848152602001908152602001600020600061046891906108ba565b600090505b6000805490508110156104b0578260008281548110151561048a57fe5b906000526020600020015414156104a3578091506104b0565b808060010191505061046d565b6000828154811015156104bf57fe5b90600052602060002001600090557fb3adbc54f66cab4b9f21710277db66604514a9f8365d3a6074e0fcf4e0a7af79846040518080602001828103825283818151815260200191508051906020019080838360005b8381101561052f578082015181840152602081019050610514565b50505050905090810190601f16801561055c5780820380516001836020036101000a031916815260200191505b509250505060405180910390a150505050565b60016020528060005260406000206000915090508054600181600116156101000203166002900480601f0160208091040260200160405190810160405280929190818152602001828054600181600116156101000203166002900480156106175780601f106105ec57610100808354040283529160200191610617565b820191906000526020600020905b8154815290600101906020018083116105fa57829003601f168201915b505050505081565b600080600061062d856107e8565b925083600160008581526020019081526020016000209080519060200190610656929190610902565b5060009150600090505b6000805490508110156106a4578260008281548110151561067d57fe5b9060005260206000200154141561069757600191506106a4565b8080600101915050610660565b8115156106d85760008390806001815401808255809150509060018203906000526020600020016000909192909190915055505b7fd2ac703a1ac33b5915d0da86828106308fd72337a615e8152a3beb5f845365528585604051808060200180602001838103835285818151815260200191508051906020019080838360005b8381101561073f578082015181840152602081019050610724565b50505050905090810190601f16801561076c5780820380516001836020036101000a031916815260200191505b50838103825284818151815260200191508051906020019080838360005b838110156107a557808201518184015260208101905061078a565b50505050905090810190601f1680156107d25780820380516001836020036101000a031916815260200191505b5094505050505060405180910390a15050505050565b6000606060008084925060009350600091505b82518210156108b257828281518110151561081257fe5b9060200101517f010000000000000000000000000000000000000000000000000000000000000090047f0100000000000000000000000000000000000000000000000000000000000000027f01000000000000000000000000000000000000000000000000000000000000009004905060308110158015610894575060398111155b156108a55760308103600a85020193505b81806001019250506107fb565b505050919050565b50805460018160011615610100020316600290046000825580601f106108e057506108ff565b601f0160209004906000526020600020908101906108fe9190610982565b5b50565b828054600181600116156101000203166002900490600052602060002090601f016020900481019282601f1061094357805160ff1916838001178555610971565b82800160010185558215610971579182015b82811115610970578251825591602001919060010190610955565b5b50905061097e9190610982565b5090565b6109a491905b808211156109a0576000816000905550600101610988565b5090565b905600a165627a7a7230582013ac55b9633698ec209af74d905c3fa0ab61190cab16429c2fcd6616ea4683f70029",
  "source": "pragma solidity ^0.4.24;\n\ncontract NameValue {\n  uint[] public keys;\n  mapping (uint => string) public data;\n\n  event KeyUpdated(string key, string value);\n  event KeyRemoved(string key);\n\n  function update(string key, string value) public {\n    uint key_uint = stringToUint(key);\n\n    data[key_uint] = value;\n\n    bool exists = false;\n    for (uint i=0; i<keys.length; i++) {\n      if (keys[i] == key_uint) {\n        exists = true;\n        break;\n      }\n    }\n\n    if (! exists) {\n      keys.push(key_uint);\n    }\n\n    emit KeyUpdated(key, value);\n  }\n\n  function stringToUint(string str) private pure returns (uint result) {\n    bytes memory b = bytes(str);\n    uint i;\n    result = 0;\n    for (i = 0; i < b.length; i++) {\n      uint c = uint(b[i]);\n      if (c >= 48 && c <= 57) {\n        result = result * 10 + (c - 48);\n      }\n    }\n  }\n\n  function get(string key) public view returns (string) {\n    uint key_uint = stringToUint(key);\n    return data[key_uint];\n  }\n\n  function remove(string key) public {\n    uint key_uint = stringToUint(key);\n\n    delete data[key_uint];\n    uint deleteIndex;\n    for (uint i=0; i<keys.length; i++) {\n      if (keys[i] == key_uint) {\n        deleteIndex = i;\n        break;\n      }\n    }\n    delete keys[deleteIndex];\n\n    emit KeyRemoved(key);\n  }\n\n}\n",
  "sourcePath": "/home/user/work/beemster/test_task_quorum/truffle_suite/contracts/NameValue.sol",
  "compiler": {
    "name": "solc",
    "version": "0.4.24+commit.e67f0147.Emscripten.clang"
  },
  "schemaVersion": "2.0.1",
  "updatedAt": "2018-08-17T17:23:40.866Z"
}