{
  "contractName": "NameValue",
  "abi": [
    {
      "constant": true,
      "inputs": [
        {
          "name": "",
          "type": "uint256"
        }
      ],
      "name": "keys",
      "outputs": [
        {
          "name": "",
          "type": "uint256"
        }
      ],
      "payable": false,
      "stateMutability": "view",
      "type": "function"
    },
    {
      "constant": true,
      "inputs": [
        {
          "name": "",
          "type": "uint256"
        }
      ],
      "name": "data",
      "outputs": [
        {
          "name": "",
          "type": "string"
        }
      ],
      "payable": false,
      "stateMutability": "view",
      "type": "function"
    },
    {
      "anonymous": false,
      "inputs": [
        {
          "indexed": false,
          "name": "key",
          "type": "string"
        },
        {
          "indexed": false,
          "name": "value",
          "type": "string"
        }
      ],
      "name": "KeyUpdated",
      "type": "event"
    },
    {
      "anonymous": false,
      "inputs": [
        {
          "indexed": false,
          "name": "key",
          "type": "string"
        }
      ],
      "name": "KeyRemoved",
      "type": "event"
    },
    {
      "constant": false,
      "inputs": [
        {
          "name": "key",
          "type": "string"
        },
        {
          "name": "value",
          "type": "string"
        }
      ],
      "name": "update",
      "outputs": [],
      "payable": false,
      "stateMutability": "nonpayable",
      "type": "function"
    },
    {
      "constant": true,
      "inputs": [
        {
          "name": "str",
          "type": "string"
        }
      ],
      "name": "stringToUint",
      "outputs": [
        {
          "name": "result",
          "type": "uint256"
        }
      ],
      "payable": false,
      "stateMutability": "pure",
      "type": "function"
    },
    {
      "constant": true,
      "inputs": [
        {
          "name": "v",
          "type": "uint256"
        }
      ],
      "name": "uintToString",
      "outputs": [
        {
          "name": "str",
          "type": "string"
        }
      ],
      "payable": false,
      "stateMutability": "pure",
      "type": "function"
    },
    {
      "constant": true,
      "inputs": [
        {
          "name": "key",
          "type": "string"
        }
      ],
      "name": "get",
      "outputs": [
        {
          "name": "",
          "type": "string"
        }
      ],
      "payable": false,
      "stateMutability": "view",
      "type": "function"
    },
    {
      "constant": false,
      "inputs": [
        {
          "name": "key",
          "type": "string"
        }
      ],
      "name": "remove",
      "outputs": [],
      "payable": false,
      "stateMutability": "nonpayable",
      "type": "function"
    },
    {
      "constant": true,
      "inputs": [],
      "name": "dumpKeys",
      "outputs": [
        {
          "name": "",
          "type": "uint256[]"
        }
      ],
      "payable": false,
      "stateMutability": "view",
      "type": "function"
    },
    {
      "constant": true,
      "inputs": [
        {
          "name": "key_uint",
          "type": "uint256"
        }
      ],
      "name": "getFromUint",
      "outputs": [
        {
          "name": "",
          "type": "string"
        }
      ],
      "payable": false,
      "stateMutability": "view",
      "type": "function"
    }
  ],
  "bytecode": "0x608060405234801561001057600080fd5b50610f1f806100206000396000f300608060405260043610610099576000357c0100000000000000000000000000000000000000000000000000000000900463ffffffff1680630cb6aaf11461009e5780631bd95155146100df578063200c08bd1461015c57806323701aba146101c8578063693ec85e1461026e57806380599e4b14610350578063e9395679146103b9578063f0ba84401461045f578063f4c84d1914610505575b600080fd5b3480156100aa57600080fd5b506100c9600480360381019080803590602001909291905050506105b4565b6040518082815260200191505060405180910390f35b3480156100eb57600080fd5b50610146600480360381019080803590602001908201803590602001908080601f01602080910402602001604051908101604052809392919081815260200183838082843782019150505050505091929192905050506105d7565b6040518082815260200191505060405180910390f35b34801561016857600080fd5b506101716106a9565b6040518080602001828103825283818151815260200191508051906020019060200280838360005b838110156101b4578082015181840152602081019050610199565b505050509050019250505060405180910390f35b3480156101d457600080fd5b506101f360048036038101908080359060200190929190505050610701565b6040518080602001828103825283818151815260200191508051906020019080838360005b83811015610233578082015181840152602081019050610218565b50505050905090810190601f1680156102605780820380516001836020036101000a031916815260200191505b509250505060405180910390f35b34801561027a57600080fd5b506102d5600480360381019080803590602001908201803590602001908080601f01602080910402602001604051908101604052809392919081815260200183838082843782019150505050505091929192905050506107b6565b6040518080602001828103825283818151815260200191508051906020019080838360005b838110156103155780820151818401526020810190506102fa565b50505050905090810190601f1680156103425780820380516001836020036101000a031916815260200191505b509250505060405180910390f35b34801561035c57600080fd5b506103b7600480360381019080803590602001908201803590602001908080601f0160208091040260200160405190810160405280939291908181526020018383808284378201915050505050509192919290505050610879565b005b3480156103c557600080fd5b506103e4600480360381019080803590602001909291905050506109af565b6040518080602001828103825283818151815260200191508051906020019080838360005b83811015610424578082015181840152602081019050610409565b50505050905090810190601f1680156104515780820380516001836020036101000a031916815260200191505b509250505060405180910390f35b34801561046b57600080fd5b5061048a60048036038101908080359060200190929190505050610b8d565b6040518080602001828103825283818151815260200191508051906020019080838360005b838110156104ca5780820151818401526020810190506104af565b50505050905090810190601f1680156104f75780820380516001836020036101000a031916815260200191505b509250505060405180910390f35b34801561051157600080fd5b506105b2600480360381019080803590602001908201803590602001908080601f0160208091040260200160405190810160405280939291908181526020018383808284378201915050505050509192919290803590602001908201803590602001908080601f0160208091040260200160405190810160405280939291908181526020018383808284378201915050505050509192919290505050610c3d565b005b6000818154811015156105c357fe5b906000526020600020016000915090505481565b6000606060008084925060009350600091505b82518210156106a157828281518110151561060157fe5b9060200101517f010000000000000000000000000000000000000000000000000000000000000090047f0100000000000000000000000000000000000000000000000000000000000000027f01000000000000000000000000000000000000000000000000000000000000009004905060308110158015610683575060398111155b156106945760308103600a85020193505b81806001019250506105ea565b505050919050565b606060008054806020026020016040519081016040528092919081815260200182805480156106f757602002820191906000526020600020905b8154815260200190600101908083116106e3575b5050505050905090565b6060600160008381526020019081526020016000208054600181600116156101000203166002900480601f0160208091040260200160405190810160405280929190818152602001828054600181600116156101000203166002900480156107aa5780601f1061077f576101008083540402835291602001916107aa565b820191906000526020600020905b81548152906001019060200180831161078d57829003601f168201915b50505050509050919050565b606060006107c3836105d7565b9050600160008281526020019081526020016000208054600181600116156101000203166002900480601f01602080910402602001604051908101604052809291908181526020018280546001816001161561010002031660029004801561086c5780601f106108415761010080835404028352916020019161086c565b820191906000526020600020905b81548152906001019060200180831161084f57829003601f168201915b5050505050915050919050565b6000806000610887846105d7565b92506001600084815260200190815260200160002060006108a89190610e06565b600090505b6000805490508110156108f057826000828154811015156108ca57fe5b906000526020600020015414156108e3578091506108f0565b80806001019150506108ad565b6000828154811015156108ff57fe5b90600052602060002001600090557fb3adbc54f66cab4b9f21710277db66604514a9f8365d3a6074e0fcf4e0a7af79846040518080602001828103825283818151815260200191508051906020019080838360005b8381101561096f578082015181840152602081019050610954565b50505050905090810190601f16801561099c5780820380516001836020036101000a031916815260200191505b509250505060405180910390a150505050565b6060600060606000806060600060649550856040519080825280601f01601f1916602001820160405280156109f35781602001602082028038833980820191505090505b509450600093505b600088141515610a9257600a88811515610a1157fe5b069250600a88811515610a2057fe5b049750826030017f0100000000000000000000000000000000000000000000000000000000000000028585806001019650815181101515610a5d57fe5b9060200101907effffffffffffffffffffffffffffffffffffffffffffffffffffffffffffff1916908160001a9053506109fb565b600184016040519080825280601f01601f191660200182016040528015610ac85781602001602082028038833980820191505090505b509150600090505b8381111515610b7f5784818503815181101515610ae957fe5b9060200101517f010000000000000000000000000000000000000000000000000000000000000090047f0100000000000000000000000000000000000000000000000000000000000000028282815181101515610b4257fe5b9060200101907effffffffffffffffffffffffffffffffffffffffffffffffffffffffffffff1916908160001a9053508080600101915050610ad0565b819650505050505050919050565b60016020528060005260406000206000915090508054600181600116156101000203166002900480601f016020809104026020016040519081016040528092919081815260200182805460018160011615610100020316600290048015610c355780601f10610c0a57610100808354040283529160200191610c35565b820191906000526020600020905b815481529060010190602001808311610c1857829003601f168201915b505050505081565b6000806000610c4b856105d7565b925083600160008581526020019081526020016000209080519060200190610c74929190610e4e565b5060009150600090505b600080549050811015610cc25782600082815481101515610c9b57fe5b90600052602060002001541415610cb55760019150610cc2565b8080600101915050610c7e565b811515610cf65760008390806001815401808255809150509060018203906000526020600020016000909192909190915055505b7fd2ac703a1ac33b5915d0da86828106308fd72337a615e8152a3beb5f845365528585604051808060200180602001838103835285818151815260200191508051906020019080838360005b83811015610d5d578082015181840152602081019050610d42565b50505050905090810190601f168015610d8a5780820380516001836020036101000a031916815260200191505b50838103825284818151815260200191508051906020019080838360005b83811015610dc3578082015181840152602081019050610da8565b50505050905090810190601f168015610df05780820380516001836020036101000a031916815260200191505b5094505050505060405180910390a15050505050565b50805460018160011615610100020316600290046000825580601f10610e2c5750610e4b565b601f016020900490600052602060002090810190610e4a9190610ece565b5b50565b828054600181600116156101000203166002900490600052602060002090601f016020900481019282601f10610e8f57805160ff1916838001178555610ebd565b82800160010185558215610ebd579182015b82811115610ebc578251825591602001919060010190610ea1565b5b509050610eca9190610ece565b5090565b610ef091905b80821115610eec576000816000905550600101610ed4565b5090565b905600a165627a7a7230582055862b66b024762267c7d69f8b7245d48c58967e7cdaf8176e5fb034a80b78e70029",
  "source": "pragma solidity ^0.4.24;\n//pragma experimental ABIEncoderV2;\n\ncontract NameValue {\n  uint[] public keys;\n  mapping (uint => string) public data;\n\n  event KeyUpdated(string key, string value);\n  event KeyRemoved(string key);\n\n  function update(string key, string value) public {\n    uint key_uint = stringToUint(key);\n\n    data[key_uint] = value;\n\n    bool exists = false;\n    for (uint i=0; i<keys.length; i++) {\n      if (keys[i] == key_uint) {\n        exists = true;\n        break;\n      }\n    }\n\n    if (! exists) {\n      keys.push(key_uint);\n    }\n\n    emit KeyUpdated(key, value);\n  }\n\n//  function stringToUint(string str) private pure returns (uint result) {\n  function stringToUint(string str) public pure returns (uint result) {\n    bytes memory b = bytes(str);\n    uint i;\n    result = 0;\n    for (i = 0; i < b.length; i++) {\n      uint c = uint(b[i]);\n      if (c >= 48 && c <= 57) {\n        result = result * 10 + (c - 48);\n      }\n    }\n  }\n\n//  function uintToString(uint v) private pure returns (string str) {\n  function uintToString(uint v) public pure returns (string str) {\n    uint maxlength = 100;\n    bytes memory reversed = new bytes(maxlength);\n    uint i = 0;\n    while (v != 0) {\n      uint remainder = v % 10;\n      v = v / 10;\n      reversed[i++] = byte(48 + remainder);\n    }\n    bytes memory s = new bytes(i + 1);\n    for (uint j = 0; j <= i; j++) {\n      s[j] = reversed[i - j];\n    }\n    str = string(s);\n  }\n\n  function get(string key) public view returns (string) {\n    uint key_uint = stringToUint(key);\n    return data[key_uint];\n  }\n\n  function remove(string key) public {\n    uint key_uint = stringToUint(key);\n\n    delete data[key_uint];\n    uint deleteIndex;\n    for (uint i=0; i<keys.length; i++) {\n      if (keys[i] == key_uint) {\n        deleteIndex = i;\n        break;\n      }\n    }\n    delete keys[deleteIndex];\n\n    emit KeyRemoved(key);\n  }\n\n  function dumpKeys() public view returns (uint[]){\n//    string[] memory keys_res = new string[](keys.length);\n//    string[] memory values = new string[](keys.length);\n//    for (uint i = 0 ; i <  keys.length ; i++) {\n////      keys_res[i] = uintToString(keys[i]);\n//      keys_res[i] = \"TEST\";\n////      values[i] = data[keys[i]];\n//      values[i] = \"TEST2\";\n//    }\n//    string[] memory keys_res = new string[](keys.length);\n//    for (uint i = 0 ; i <  keys.length ; i++) {\n//      keys_res[i] = uintToString(keys[i]);\n//    }\n    return keys;\n  }\n\n  function getFromUint(uint key_uint) public view returns (string) {\n    return data[key_uint];\n  }\n\n}\n",
  "sourcePath": "/home/user/work/beemster/test_task_quorum/truffle_suite/contracts/NameValue.sol",
  "compiler": {
    "name": "solc",
    "version": "0.4.24+commit.e67f0147.Emscripten.clang"
  },
  "schemaVersion": "2.0.1",
  "updatedAt": "2018-08-20T10:52:12.404Z"
}