{
  "contractName": "NameValue",
  "abi": [
    {
      "constant": true,
      "inputs": [
        {
          "name": "",
          "type": "uint256"
        }
      ],
      "name": "keys",
      "outputs": [
        {
          "name": "",
          "type": "uint256"
        }
      ],
      "payable": false,
      "stateMutability": "view",
      "type": "function"
    },
    {
      "constant": true,
      "inputs": [
        {
          "name": "",
          "type": "uint256"
        }
      ],
      "name": "data",
      "outputs": [
        {
          "name": "",
          "type": "string"
        }
      ],
      "payable": false,
      "stateMutability": "view",
      "type": "function"
    },
    {
      "anonymous": false,
      "inputs": [
        {
          "indexed": false,
          "name": "key",
          "type": "string"
        },
        {
          "indexed": false,
          "name": "value",
          "type": "string"
        }
      ],
      "name": "KeyUpdated",
      "type": "event"
    },
    {
      "anonymous": false,
      "inputs": [
        {
          "indexed": false,
          "name": "key",
          "type": "string"
        }
      ],
      "name": "KeyRemoved",
      "type": "event"
    },
    {
      "constant": false,
      "inputs": [
        {
          "name": "key",
          "type": "string"
        },
        {
          "name": "value",
          "type": "string"
        }
      ],
      "name": "update",
      "outputs": [],
      "payable": false,
      "stateMutability": "nonpayable",
      "type": "function"
    },
    {
      "constant": true,
      "inputs": [
        {
          "name": "str",
          "type": "string"
        }
      ],
      "name": "stringToUintHash",
      "outputs": [
        {
          "name": "",
          "type": "uint256"
        }
      ],
      "payable": false,
      "stateMutability": "pure",
      "type": "function"
    },
    {
      "constant": true,
      "inputs": [
        {
          "name": "number",
          "type": "uint256"
        }
      ],
      "name": "UintHashToString",
      "outputs": [
        {
          "name": "",
          "type": "string"
        }
      ],
      "payable": false,
      "stateMutability": "pure",
      "type": "function"
    },
    {
      "constant": true,
      "inputs": [
        {
          "name": "key",
          "type": "string"
        }
      ],
      "name": "get",
      "outputs": [
        {
          "name": "",
          "type": "string"
        }
      ],
      "payable": false,
      "stateMutability": "view",
      "type": "function"
    },
    {
      "constant": false,
      "inputs": [
        {
          "name": "key",
          "type": "string"
        }
      ],
      "name": "remove",
      "outputs": [],
      "payable": false,
      "stateMutability": "nonpayable",
      "type": "function"
    },
    {
      "constant": true,
      "inputs": [],
      "name": "dumpKeys",
      "outputs": [
        {
          "name": "",
          "type": "uint256[]"
        }
      ],
      "payable": false,
      "stateMutability": "view",
      "type": "function"
    },
    {
      "constant": true,
      "inputs": [
        {
          "name": "key_uint",
          "type": "uint256"
        }
      ],
      "name": "getFromUint",
      "outputs": [
        {
          "name": "",
          "type": "string"
        }
      ],
      "payable": false,
      "stateMutability": "view",
      "type": "function"
    }
  ],
  "bytecode": "0x608060405234801561001057600080fd5b50610e63806100206000396000f300608060405260043610610099576000357c0100000000000000000000000000000000000000000000000000000000900463ffffffff1680630cb6aaf11461009e578063200c08bd146100df57806323701aba1461014b578063693ec85e146101f157806380599e4b146102d357806381ea56121461033c578063ef7dbe27146103e2578063f0ba84401461045f578063f4c84d1914610505575b600080fd5b3480156100aa57600080fd5b506100c9600480360381019080803590602001909291905050506105b4565b6040518082815260200191505060405180910390f35b3480156100eb57600080fd5b506100f46105d7565b6040518080602001828103825283818151815260200191508051906020019060200280838360005b8381101561013757808201518184015260208101905061011c565b505050509050019250505060405180910390f35b34801561015757600080fd5b506101766004803603810190808035906020019092919050505061062f565b6040518080602001828103825283818151815260200191508051906020019080838360005b838110156101b657808201518184015260208101905061019b565b50505050905090810190601f1680156101e35780820380516001836020036101000a031916815260200191505b509250505060405180910390f35b3480156101fd57600080fd5b50610258600480360381019080803590602001908201803590602001908080601f01602080910402602001604051908101604052809392919081815260200183838082843782019150505050505091929192905050506106e4565b6040518080602001828103825283818151815260200191508051906020019080838360005b8381101561029857808201518184015260208101905061027d565b50505050905090810190601f1680156102c55780820380516001836020036101000a031916815260200191505b509250505060405180910390f35b3480156102df57600080fd5b5061033a600480360381019080803590602001908201803590602001908080601f01602080910402602001604051908101604052809392919081815260200183838082843782019150505050505091929192905050506107a7565b005b34801561034857600080fd5b50610367600480360381019080803590602001909291905050506108dd565b6040518080602001828103825283818151815260200191508051906020019080838360005b838110156103a757808201518184015260208101905061038c565b50505050905090810190601f1680156103d45780820380516001836020036101000a031916815260200191505b509250505060405180910390f35b3480156103ee57600080fd5b50610449600480360381019080803590602001908201803590602001908080601f0160208091040260200160405190810160405280939291908181526020018383808284378201915050505050509192919290505050610a9f565b6040518082815260200191505060405180910390f35b34801561046b57600080fd5b5061048a60048036038101908080359060200190929190505050610ad1565b6040518080602001828103825283818151815260200191508051906020019080838360005b838110156104ca5780820151818401526020810190506104af565b50505050905090810190601f1680156104f75780820380516001836020036101000a031916815260200191505b509250505060405180910390f35b34801561051157600080fd5b506105b2600480360381019080803590602001908201803590602001908080601f0160208091040260200160405190810160405280939291908181526020018383808284378201915050505050509192919290803590602001908201803590602001908080601f0160208091040260200160405190810160405280939291908181526020018383808284378201915050505050509192919290505050610b81565b005b6000818154811015156105c357fe5b906000526020600020016000915090505481565b6060600080548060200260200160405190810160405280929190818152602001828054801561062557602002820191906000526020600020905b815481526020019060010190808311610611575b5050505050905090565b6060600160008381526020019081526020016000208054600181600116156101000203166002900480601f0160208091040260200160405190810160405280929190818152602001828054600181600116156101000203166002900480156106d85780601f106106ad576101008083540402835291602001916106d8565b820191906000526020600020905b8154815290600101906020018083116106bb57829003601f168201915b50505050509050919050565b606060006106f183610a9f565b9050600160008281526020019081526020016000208054600181600116156101000203166002900480601f01602080910402602001604051908101604052809291908181526020018280546001816001161561010002031660029004801561079a5780601f1061076f5761010080835404028352916020019161079a565b820191906000526020600020905b81548152906001019060200180831161077d57829003601f168201915b5050505050915050919050565b60008060006107b584610a9f565b92506001600084815260200190815260200160002060006107d69190610d4a565b600090505b60008054905081101561081e57826000828154811015156107f857fe5b906000526020600020015414156108115780915061081e565b80806001019150506107db565b60008281548110151561082d57fe5b90600052602060002001600090557fb3adbc54f66cab4b9f21710277db66604514a9f8365d3a6074e0fcf4e0a7af79846040518080602001828103825283818151815260200191508051906020019080838360005b8381101561089d578082015181840152602081019050610882565b50505050905090810190601f1680156108ca5780820380516001836020036101000a031916815260200191505b509250505060405180910390a150505050565b6060806000606060206040519080825280601f01601f1916602001820160405280156109185781602001602082028038833980820191505090505b509250600091505b60208210156109ab5781601f0360080260020a8581151561093d57fe5b047f010000000000000000000000000000000000000000000000000000000000000002838381518110151561096e57fe5b9060200101907effffffffffffffffffffffffffffffffffffffffffffffffffffffffffffff1916908160001a9053508180600101925050610920565b60206040519080825280601f01601f1916602001820160405280156109df5781602001602082028038833980820191505090505b509050600091505b6020821015610a945782828151811015156109fe57fe5b9060200101517f010000000000000000000000000000000000000000000000000000000000000090047f0100000000000000000000000000000000000000000000000000000000000000028183815181101515610a5757fe5b9060200101907effffffffffffffffffffffffffffffffffffffffffffffffffffffffffffff1916908160001a90535081806001019250506109e7565b809350505050919050565b600060606000839150600082511415610abb5760009250610aca565b60208401519050806001900492505b5050919050565b60016020528060005260406000206000915090508054600181600116156101000203166002900480601f016020809104026020016040519081016040528092919081815260200182805460018160011615610100020316600290048015610b795780601f10610b4e57610100808354040283529160200191610b79565b820191906000526020600020905b815481529060010190602001808311610b5c57829003601f168201915b505050505081565b6000806000610b8f85610a9f565b925083600160008581526020019081526020016000209080519060200190610bb8929190610d92565b5060009150600090505b600080549050811015610c065782600082815481101515610bdf57fe5b90600052602060002001541415610bf95760019150610c06565b8080600101915050610bc2565b811515610c3a5760008390806001815401808255809150509060018203906000526020600020016000909192909190915055505b7fd2ac703a1ac33b5915d0da86828106308fd72337a615e8152a3beb5f845365528585604051808060200180602001838103835285818151815260200191508051906020019080838360005b83811015610ca1578082015181840152602081019050610c86565b50505050905090810190601f168015610cce5780820380516001836020036101000a031916815260200191505b50838103825284818151815260200191508051906020019080838360005b83811015610d07578082015181840152602081019050610cec565b50505050905090810190601f168015610d345780820380516001836020036101000a031916815260200191505b5094505050505060405180910390a15050505050565b50805460018160011615610100020316600290046000825580601f10610d705750610d8f565b601f016020900490600052602060002090810190610d8e9190610e12565b5b50565b828054600181600116156101000203166002900490600052602060002090601f016020900481019282601f10610dd357805160ff1916838001178555610e01565b82800160010185558215610e01579182015b82811115610e00578251825591602001919060010190610de5565b5b509050610e0e9190610e12565b5090565b610e3491905b80821115610e30576000816000905550600101610e18565b5090565b905600a165627a7a72305820c41fe56690ea251c94ef0375dd2af0a4a4a0bfcaa7528b4d1452ee5992190df30029",
  "source": "pragma solidity ^0.4.21;\n\ncontract NameValue {\n  uint[] public keys;\n  mapping (uint => string) public data;\n\n  event KeyUpdated(string key, string value);\n  event KeyRemoved(string key);\n\n  function update(string key, string value) public {\n    uint key_uint = stringToUintHash(key);\n\n    data[key_uint] = value;\n\n    bool exists = false;\n    for (uint i=0; i<keys.length; i++) {\n      if (keys[i] == key_uint) {\n        exists = true;\n        break;\n      }\n    }\n\n    if (! exists) {\n      keys.push(key_uint);\n    }\n\n    emit KeyUpdated(key, value);\n  }\n\n//  function stringToUintHash(string str) private pure returns (uint) {\n  function stringToUintHash(string str) public pure returns (uint) {\n    bytes memory tempEmptyStringTest = bytes(str);\n    if (tempEmptyStringTest.length == 0) {\n      return 0;\n    }\n\n    bytes32 b;\n    assembly {\n      b := mload(add(str, 32))\n    }\n\n    return uint(b);\n  }\n\n//  function UintHashToString(uint number) private pure returns (string) {\n  function UintHashToString(uint number) public pure returns (string) {\n    bytes memory b = new bytes(32);\n    for (uint i = 0; i < 32; i++) {\n      b[i] = byte(uint8(number / (2**(8*(31 - i)))));\n    }\n\n    bytes memory bytesArray = new bytes(32);\n    for (i = 0; i < 32; i++) {\n      bytesArray[i] = b[i];\n    }\n    return string(bytesArray);\n  }\n\n  function get(string key) public view returns (string) {\n    uint key_uint = stringToUintHash(key);\n    return data[key_uint];\n  }\n\n  function remove(string key) public {\n    uint key_uint = stringToUintHash(key);\n\n    delete data[key_uint];\n    uint deleteIndex;\n    for (uint i=0; i<keys.length; i++) {\n      if (keys[i] == key_uint) {\n        deleteIndex = i;\n        break;\n      }\n    }\n    delete keys[deleteIndex];\n\n    emit KeyRemoved(key);\n  }\n\n  function dumpKeys() public view returns (uint[]){\n    return keys;\n  }\n\n  function getFromUint(uint key_uint) public view returns (string) {\n    return data[key_uint];\n  }\n\n}\n",
  "sourcePath": "/home/user/work/beemster/test_task_quorum/truffle_suite/contracts/NameValue.sol",
  "compiler": {
    "name": "solc",
    "version": "0.4.24+commit.e67f0147.Emscripten.clang"
  },
  "schemaVersion": "2.0.1",
  "updatedAt": "2018-08-21T17:27:48.668Z"
}