{
  "contractName": "NameValue",
  "abi": [
    {
      "constant": true,
      "inputs": [
        {
          "name": "",
          "type": "uint256"
        }
      ],
      "name": "keys",
      "outputs": [
        {
          "name": "",
          "type": "uint256"
        }
      ],
      "payable": false,
      "stateMutability": "view",
      "type": "function"
    },
    {
      "constant": true,
      "inputs": [
        {
          "name": "",
          "type": "uint256"
        }
      ],
      "name": "data",
      "outputs": [
        {
          "name": "",
          "type": "string"
        }
      ],
      "payable": false,
      "stateMutability": "view",
      "type": "function"
    },
    {
      "anonymous": false,
      "inputs": [
        {
          "indexed": false,
          "name": "key",
          "type": "string"
        },
        {
          "indexed": false,
          "name": "value",
          "type": "string"
        }
      ],
      "name": "KeyUpdated",
      "type": "event"
    },
    {
      "anonymous": false,
      "inputs": [
        {
          "indexed": false,
          "name": "key",
          "type": "string"
        }
      ],
      "name": "KeyRemoved",
      "type": "event"
    },
    {
      "constant": false,
      "inputs": [
        {
          "name": "key",
          "type": "string"
        },
        {
          "name": "value",
          "type": "string"
        }
      ],
      "name": "update",
      "outputs": [],
      "payable": false,
      "stateMutability": "nonpayable",
      "type": "function"
    },
    {
      "constant": true,
      "inputs": [
        {
          "name": "key",
          "type": "string"
        }
      ],
      "name": "get",
      "outputs": [
        {
          "name": "",
          "type": "string"
        }
      ],
      "payable": false,
      "stateMutability": "view",
      "type": "function"
    },
    {
      "constant": false,
      "inputs": [
        {
          "name": "key",
          "type": "string"
        }
      ],
      "name": "remove",
      "outputs": [],
      "payable": false,
      "stateMutability": "nonpayable",
      "type": "function"
    },
    {
      "constant": true,
      "inputs": [],
      "name": "dumpKeys",
      "outputs": [
        {
          "name": "",
          "type": "uint256[]"
        }
      ],
      "payable": false,
      "stateMutability": "view",
      "type": "function"
    }
  ],
  "bytecode": "0x608060405234801561001057600080fd5b50610a02806100206000396000f300608060405260043610610078576000357c0100000000000000000000000000000000000000000000000000000000900463ffffffff1680630cb6aaf11461007d578063200c08bd146100be578063693ec85e1461012a57806380599e4b1461020c578063f0ba844014610275578063f4c84d191461031b575b600080fd5b34801561008957600080fd5b506100a8600480360381019080803590602001909291905050506103ca565b6040518082815260200191505060405180910390f35b3480156100ca57600080fd5b506100d36103ed565b6040518080602001828103825283818151815260200191508051906020019060200280838360005b838110156101165780820151818401526020810190506100fb565b505050509050019250505060405180910390f35b34801561013657600080fd5b50610191600480360381019080803590602001908201803590602001908080601f0160208091040260200160405190810160405280939291908181526020018383808284378201915050505050509192919290505050610445565b6040518080602001828103825283818151815260200191508051906020019080838360005b838110156101d15780820151818401526020810190506101b6565b50505050905090810190601f1680156101fe5780820380516001836020036101000a031916815260200191505b509250505060405180910390f35b34801561021857600080fd5b50610273600480360381019080803590602001908201803590602001908080601f0160208091040260200160405190810160405280939291908181526020018383808284378201915050505050509192919290505050610508565b005b34801561028157600080fd5b506102a06004803603810190808035906020019092919050505061063e565b6040518080602001828103825283818151815260200191508051906020019080838360005b838110156102e05780820151818401526020810190506102c5565b50505050905090810190601f16801561030d5780820380516001836020036101000a031916815260200191505b509250505060405180910390f35b34801561032757600080fd5b506103c8600480360381019080803590602001908201803590602001908080601f0160208091040260200160405190810160405280939291908181526020018383808284378201915050505050509192919290803590602001908201803590602001908080601f01602080910402602001604051908101604052809392919081815260200183838082843782019150505050505091929192905050506106ee565b005b6000818154811015156103d957fe5b906000526020600020016000915090505481565b6060600080548060200260200160405190810160405280929190818152602001828054801561043b57602002820191906000526020600020905b815481526020019060010190808311610427575b5050505050905090565b60606000610452836108b7565b9050600160008281526020019081526020016000208054600181600116156101000203166002900480601f0160208091040260200160405190810160405280929190818152602001828054600181600116156101000203166002900480156104fb5780601f106104d0576101008083540402835291602001916104fb565b820191906000526020600020905b8154815290600101906020018083116104de57829003601f168201915b5050505050915050919050565b6000806000610516846108b7565b925060016000848152602001908152602001600020600061053791906108e9565b600090505b60008054905081101561057f578260008281548110151561055957fe5b906000526020600020015414156105725780915061057f565b808060010191505061053c565b60008281548110151561058e57fe5b90600052602060002001600090557fb3adbc54f66cab4b9f21710277db66604514a9f8365d3a6074e0fcf4e0a7af79846040518080602001828103825283818151815260200191508051906020019080838360005b838110156105fe5780820151818401526020810190506105e3565b50505050905090810190601f16801561062b5780820380516001836020036101000a031916815260200191505b509250505060405180910390a150505050565b60016020528060005260406000206000915090508054600181600116156101000203166002900480601f0160208091040260200160405190810160405280929190818152602001828054600181600116156101000203166002900480156106e65780601f106106bb576101008083540402835291602001916106e6565b820191906000526020600020905b8154815290600101906020018083116106c957829003601f168201915b505050505081565b60008060006106fc856108b7565b925083600160008581526020019081526020016000209080519060200190610725929190610931565b5060009150600090505b600080549050811015610773578260008281548110151561074c57fe5b906000526020600020015414156107665760019150610773565b808060010191505061072f565b8115156107a75760008390806001815401808255809150509060018203906000526020600020016000909192909190915055505b7fd2ac703a1ac33b5915d0da86828106308fd72337a615e8152a3beb5f845365528585604051808060200180602001838103835285818151815260200191508051906020019080838360005b8381101561080e5780820151818401526020810190506107f3565b50505050905090810190601f16801561083b5780820380516001836020036101000a031916815260200191505b50838103825284818151815260200191508051906020019080838360005b83811015610874578082015181840152602081019050610859565b50505050905090810190601f1680156108a15780820380516001836020036101000a031916815260200191505b5094505050505060405180910390a15050505050565b6000606060008391506000825114156108d357600092506108e2565b60208401519050806001900492505b5050919050565b50805460018160011615610100020316600290046000825580601f1061090f575061092e565b601f01602090049060005260206000209081019061092d91906109b1565b5b50565b828054600181600116156101000203166002900490600052602060002090601f016020900481019282601f1061097257805160ff19168380011785556109a0565b828001600101855582156109a0579182015b8281111561099f578251825591602001919060010190610984565b5b5090506109ad91906109b1565b5090565b6109d391905b808211156109cf5760008160009055506001016109b7565b5090565b905600a165627a7a72305820a06e427b1c9317b7a9a18f771d5b6b674f8d8a3693d0ed03e00bfba9b03d0c600029",
  "source": "pragma solidity ^0.4.21;\n\ncontract NameValue {\n  uint[] public keys;\n  mapping (uint => string) public data;\n\n  event KeyUpdated(string key, string value);\n  event KeyRemoved(string key);\n\n  function update(string key, string value) public {\n    uint key_uint = stringToUintHash(key);\n\n    data[key_uint] = value;\n\n    bool exists = false;\n    for (uint i=0; i<keys.length; i++) {\n      if (keys[i] == key_uint) {\n        exists = true;\n        break;\n      }\n    }\n\n    if (! exists) {\n      keys.push(key_uint);\n    }\n\n    emit KeyUpdated(key, value);\n  }\n\n  function stringToUintHash(string str) private pure returns (uint) {\n    bytes memory tempEmptyStringTest = bytes(str);\n    if (tempEmptyStringTest.length == 0) {\n      return 0;\n    }\n\n    bytes32 b;\n    assembly {\n      b := mload(add(str, 32))\n    }\n\n    return uint(b);\n  }\n\n  function get(string key) public view returns (string) {\n    uint key_uint = stringToUintHash(key);\n    return data[key_uint];\n  }\n\n  function remove(string key) public {\n    uint key_uint = stringToUintHash(key);\n\n    delete data[key_uint];\n    uint deleteIndex;\n    for (uint i=0; i<keys.length; i++) {\n      if (keys[i] == key_uint) {\n        deleteIndex = i;\n        break;\n      }\n    }\n    delete keys[deleteIndex];\n\n    emit KeyRemoved(key);\n  }\n\n  function dumpKeys() public view returns (uint[]){\n    return keys;\n  }\n}\n",
  "sourcePath": "/home/user/work/beemster/test_task_quorum/truffle_suite/contracts/NameValue.sol",
  "compiler": {
    "name": "solc",
    "version": "0.4.24+commit.e67f0147.Emscripten.clang"
  },
  "schemaVersion": "2.0.1",
  "updatedAt": "2018-08-23T09:27:35.415Z"
}